{
  "_format": "hh-sol-artifact-1",
  "contractName": "DotlySubscription",
  "sourceName": "contracts/DotlySubscription.sol",
  "abi": [
    {
      "inputs": [
        {
          "internalType": "address",
          "name": "_usdc",
          "type": "address"
        }
      ],
      "stateMutability": "nonpayable",
      "type": "constructor"
    },
    {
      "inputs": [],
      "name": "EnforcedPause",
      "type": "error"
    },
    {
      "inputs": [],
      "name": "ExpectedPause",
      "type": "error"
    },
    {
      "inputs": [
        {
          "internalType": "address",
          "name": "owner",
          "type": "address"
        }
      ],
      "name": "OwnableInvalidOwner",
      "type": "error"
    },
    {
      "inputs": [
        {
          "internalType": "address",
          "name": "account",
          "type": "address"
        }
      ],
      "name": "OwnableUnauthorizedAccount",
      "type": "error"
    },
    {
      "inputs": [],
      "name": "ReentrancyGuardReentrantCall",
      "type": "error"
    },
    {
      "inputs": [
        {
          "internalType": "address",
          "name": "token",
          "type": "address"
        }
      ],
      "name": "SafeERC20FailedOperation",
      "type": "error"
    },
    {
      "anonymous": false,
      "inputs": [
        {
          "indexed": true,
          "internalType": "address",
          "name": "to",
          "type": "address"
        },
        {
          "indexed": false,
          "internalType": "uint256",
          "name": "amount",
          "type": "uint256"
        }
      ],
      "name": "FundsWithdrawn",
      "type": "event"
    },
    {
      "anonymous": false,
      "inputs": [
        {
          "indexed": true,
          "internalType": "address",
          "name": "previousOwner",
          "type": "address"
        },
        {
          "indexed": true,
          "internalType": "address",
          "name": "newOwner",
          "type": "address"
        }
      ],
      "name": "OwnershipTransferred",
      "type": "event"
    },
    {
      "anonymous": false,
      "inputs": [
        {
          "indexed": false,
          "internalType": "address",
          "name": "account",
          "type": "address"
        }
      ],
      "name": "Paused",
      "type": "event"
    },
    {
      "anonymous": false,
      "inputs": [
        {
          "indexed": false,
          "internalType": "enum DotlySubscription.Plan",
          "name": "plan",
          "type": "uint8"
        },
        {
          "indexed": false,
          "internalType": "uint256",
          "name": "newPrice",
          "type": "uint256"
        }
      ],
      "name": "PlanPriceUpdated",
      "type": "event"
    },
    {
      "anonymous": false,
      "inputs": [
        {
          "indexed": true,
          "internalType": "address",
          "name": "user",
          "type": "address"
        },
        {
          "indexed": false,
          "internalType": "enum DotlySubscription.Plan",
          "name": "plan",
          "type": "uint8"
        },
        {
          "indexed": false,
          "internalType": "uint256",
          "name": "expiresAt",
          "type": "uint256"
        }
      ],
      "name": "SubscriptionActivated",
      "type": "event"
    },
    {
      "anonymous": false,
      "inputs": [
        {
          "indexed": true,
          "internalType": "address",
          "name": "user",
          "type": "address"
        },
        {
          "indexed": false,
          "internalType": "enum DotlySubscription.Plan",
          "name": "plan",
          "type": "uint8"
        },
        {
          "indexed": false,
          "internalType": "uint256",
          "name": "cancelledAt",
          "type": "uint256"
        }
      ],
      "name": "SubscriptionCancelled",
      "type": "event"
    },
    {
      "anonymous": false,
      "inputs": [
        {
          "indexed": false,
          "internalType": "address",
          "name": "account",
          "type": "address"
        }
      ],
      "name": "Unpaused",
      "type": "event"
    },
    {
      "inputs": [],
      "name": "cancelSubscription",
      "outputs": [],
      "stateMutability": "nonpayable",
      "type": "function"
    },
    {
      "inputs": [
        {
          "internalType": "address",
          "name": "user",
          "type": "address"
        }
      ],
      "name": "getSubscription",
      "outputs": [
        {
          "internalType": "enum DotlySubscription.Plan",
          "name": "plan",
          "type": "uint8"
        },
        {
          "internalType": "uint256",
          "name": "expiresAt",
          "type": "uint256"
        },
        {
          "internalType": "bool",
          "name": "active",
          "type": "bool"
        }
      ],
      "stateMutability": "view",
      "type": "function"
    },
    {
      "inputs": [
        {
          "internalType": "address",
          "name": "user",
          "type": "address"
        }
      ],
      "name": "isActive",
      "outputs": [
        {
          "internalType": "bool",
          "name": "",
          "type": "bool"
        }
      ],
      "stateMutability": "view",
      "type": "function"
    },
    {
      "inputs": [
        {
          "internalType": "enum DotlySubscription.Plan",
          "name": "",
          "type": "uint8"
        }
      ],
      "name": "monthlyPrice",
      "outputs": [
        {
          "internalType": "uint256",
          "name": "",
          "type": "uint256"
        }
      ],
      "stateMutability": "view",
      "type": "function"
    },
    {
      "inputs": [],
      "name": "owner",
      "outputs": [
        {
          "internalType": "address",
          "name": "",
          "type": "address"
        }
      ],
      "stateMutability": "view",
      "type": "function"
    },
    {
      "inputs": [],
      "name": "pause",
      "outputs": [],
      "stateMutability": "nonpayable",
      "type": "function"
    },
    {
      "inputs": [],
      "name": "paused",
      "outputs": [
        {
          "internalType": "bool",
          "name": "",
          "type": "bool"
        }
      ],
      "stateMutability": "view",
      "type": "function"
    },
    {
      "inputs": [],
      "name": "renounceOwnership",
      "outputs": [],
      "stateMutability": "nonpayable",
      "type": "function"
    },
    {
      "inputs": [
        {
          "internalType": "enum DotlySubscription.Plan",
          "name": "plan",
          "type": "uint8"
        },
        {
          "internalType": "uint256",
          "name": "price",
          "type": "uint256"
        }
      ],
      "name": "setMonthlyPrice",
      "outputs": [],
      "stateMutability": "nonpayable",
      "type": "function"
    },
    {
      "inputs": [
        {
          "internalType": "enum DotlySubscription.Plan",
          "name": "plan",
          "type": "uint8"
        },
        {
          "internalType": "uint256",
          "name": "months",
          "type": "uint256"
        },
        {
          "internalType": "uint256",
          "name": "maxPricePerMonth",
          "type": "uint256"
        }
      ],
      "name": "subscribe",
      "outputs": [],
      "stateMutability": "nonpayable",
      "type": "function"
    },
    {
      "inputs": [
        {
          "internalType": "address",
          "name": "",
          "type": "address"
        }
      ],
      "name": "subscriptions",
      "outputs": [
        {
          "internalType": "enum DotlySubscription.Plan",
          "name": "plan",
          "type": "uint8"
        },
        {
          "internalType": "uint256",
          "name": "expiresAt",
          "type": "uint256"
        },
        {
          "internalType": "bool",
          "name": "active",
          "type": "bool"
        }
      ],
      "stateMutability": "view",
      "type": "function"
    },
    {
      "inputs": [
        {
          "internalType": "address",
          "name": "newOwner",
          "type": "address"
        }
      ],
      "name": "transferOwnership",
      "outputs": [],
      "stateMutability": "nonpayable",
      "type": "function"
    },
    {
      "inputs": [],
      "name": "unpause",
      "outputs": [],
      "stateMutability": "nonpayable",
      "type": "function"
    },
    {
      "inputs": [],
      "name": "usdc",
      "outputs": [
        {
          "internalType": "contract IERC20",
          "name": "",
          "type": "address"
        }
      ],
      "stateMutability": "view",
      "type": "function"
    },
    {
      "inputs": [
        {
          "internalType": "address",
          "name": "to",
          "type": "address"
        },
        {
          "internalType": "uint256",
          "name": "amount",
          "type": "uint256"
        }
      ],
      "name": "withdrawUSDC",
      "outputs": [],
      "stateMutability": "nonpayable",
      "type": "function"
    }
  ],
  "bytecode": "0x60a060405234801561001057600080fd5b5060405161114038038061114083398101604081905261002f916101d9565b338061005657604051631e4fbdf760e01b8152600060048201526024015b60405180910390fd5b61005f81610189565b5060017f9b779b17422d0df92223018b32b4d1fa46e071723d6817e2486d003becc55f00556001600160a01b0381166100da5760405162461bcd60e51b815260206004820152601b60248201527f5553444320616464726573732063616e6e6f74206265207a65726f0000000000604482015260640161004d565b6001600160a01b0316608052600160205260007fa6eef7e35abe7026729641147f7915573c7e97b47efa546f5f6e3230263bcb49819055628954407fcc69885fda6bcc1a4ace058b4a62bf5e179ea78fd58a1ccd71c22cc9b688792f556301ba81407fd9d16d34ffb15ba3a3d852f0d403e2ce1d691fb54de27ac87cd2f993f3ec330f55600381527f7dfe757ecd65cbd7922a9c0161e935dd7fdbcc0e999689c7d31633896b1fc60b55610209565b600080546001600160a01b038381166001600160a01b0319831681178455604051919092169283917f8be0079c531659141344cd1fd0a4f28419497f9722a3daafe3b4186f6b6457e09190a35050565b6000602082840312156101eb57600080fd5b81516001600160a01b038116811461020257600080fd5b9392505050565b608051610f0e610232600039600081816101340152818161044901526107540152610f0e6000f3fe608060405234801561001057600080fd5b50600436106100f55760003560e01c80636d1d8b44116100975780639f8a13d7116100665780639f8a13d714610209578063dd1589651461021c578063f046395a1461022f578063f2fde38b1461026457600080fd5b80636d1d8b44146101d5578063715018a6146101e85780638456cb59146101f05780638da5cb5b146101f857600080fd5b80633f4ba83a116100d35780633f4ba83a1461016e57806344471fd9146101765780635c975abb146101895780635ea3a64c146101a757600080fd5b80630cbebc24146100fa57806324e9edb0146101255780633e413bee1461012f575b600080fd5b61010d610108366004610d5d565b610277565b60405161011c93929190610db0565b60405180910390f35b61012d610315565b005b6101567f000000000000000000000000000000000000000000000000000000000000000081565b6040516001600160a01b03909116815260200161011c565b61012d6103cc565b61012d610184366004610dd4565b6103de565b600054600160a01b900460ff165b604051901515815260200161011c565b6101c76101b5366004610e0d565b60016020526000908152604090205481565b60405190815260200161011c565b61012d6101e3366004610e28565b6104ab565b61012d6108b7565b61012d6108c9565b6000546001600160a01b0316610156565b610197610217366004610d5d565b6108d9565b61012d61022a366004610e5b565b610961565b61010d61023d366004610d5d565b600260208190526000918252604090912080546001820154919092015460ff928316921683565b61012d610272366004610d5d565b6109e0565b6001600160a01b0381166000908152600260205260408082208151606081019092528054839283928392829060ff1660038111156102b7576102b7610d78565b60038111156102c8576102c8610d78565b8152600182015460208083019190915260029092015460ff16151560409182015282519183015190830151929350909180156103075750428360200151115b935093509350509193909250565b3360009081526002602081905260409091209081015460ff166103785760405162461bcd60e51b815260206004820152601660248201527527379030b1ba34bb329039bab139b1b934b83a34b7b760511b60448201526064015b60405180910390fd5b805460028201805460ff1916905560405160ff9091169033907fb14d54236a896cb010e02633212ce466887912d60f113cafcb0202c66d974664906103c09084904290610e77565b60405180910390a25050565b6103d4610a1e565b6103dc610a4b565b565b6103e6610a1e565b6001600160a01b03821661043c5760405162461bcd60e51b815260206004820152601f60248201527f43616e6e6f7420776974686472617720746f207a65726f206164647265737300604482015260640161036f565b6104706001600160a01b037f0000000000000000000000000000000000000000000000000000000000000000168383610aa0565b816001600160a01b03167feaff4b37086828766ad3268786972c0cd24259d4c87a80f9d3963a3c3d999b0d826040516103c091815260200190565b6104b3610ad5565b6104bb610b03565b60008360038111156104cf576104cf610d78565b0361051c5760405162461bcd60e51b815260206004820152601d60248201527f557365204652454520706c616e20776974686f7574207061796d656e74000000604482015260640161036f565b6001821015801561052e5750600c8211155b61056d5760405162461bcd60e51b815260206004820152601060248201526f312d3132206d6f6e746873206f6e6c7960801b604482015260640161036f565b60006001600085600381111561058557610585610d78565b600381111561059657610596610d78565b8152602001908152602001600020549050600081116105ec5760405162461bcd60e51b8152602060048201526012602482015271496e76616c696420706c616e20707269636560701b604482015260640161036f565b8181111561063c5760405162461bcd60e51b815260206004820152601c60248201527f5072696365206578636565647320736c69707061676520677561726400000000604482015260640161036f565b336000908152600260205260408082208151606081019092528054829060ff16600381111561066d5761066d610d78565b600381111561067e5761067e610d78565b81526001820154602082015260029091015460ff16151560409182015281015190915080156106b05750428160200151115b1561073957805160038111156106c8576106c8610d78565b8560038111156106da576106da610d78565b10156107395760405162461bcd60e51b815260206004820152602860248201527f43616e6e6f7420646f776e6772616465206d69642d6379636c653b2063616e63604482015267195b08199a5c9cdd60c21b606482015260840161036f565b60006107458584610ea8565b905061077c6001600160a01b037f000000000000000000000000000000000000000000000000000000000000000016333084610b2e565b6000826040015180156107925750428360200151115b61079c57426107a2565b82602001515b905060006107b38762278d00610ea8565b6107bd9083610ec5565b905060405180606001604052808960038111156107dc576107dc610d78565b815260208082018490526001604092830181905233600090815260029092529190208251815491929091839160ff199091169083600381111561082157610821610d78565b0217905550602082015160018201556040918201516002909101805460ff19169115159190911790555133907fb2212c919129ee1cbed0aed0b0f9dbfd48ba5f8fbb6db63b9abcd70e7b418e1e9061087c908b908590610e77565b60405180910390a250505050506108b260017f9b779b17422d0df92223018b32b4d1fa46e071723d6817e2486d003becc55f0055565b505050565b6108bf610a1e565b6103dc6000610b6a565b6108d1610a1e565b6103dc610bba565b6001600160a01b038116600090815260026020526040808220815160608101909252805483929190829060ff16600381111561091757610917610d78565b600381111561092857610928610d78565b81526001820154602082015260029091015460ff161515604091820152810151909150801561095a5750428160200151115b9392505050565b610969610a1e565b806001600084600381111561098057610980610d78565b600381111561099157610991610d78565b8152602001908152602001600020819055507f14966e8c4fba84b78ced280eadb3677e1fd4a0ef8ef8aa11b5fd82677475896382826040516109d4929190610e77565b60405180910390a15050565b6109e8610a1e565b6001600160a01b038116610a1257604051631e4fbdf760e01b81526000600482015260240161036f565b610a1b81610b6a565b50565b6000546001600160a01b031633146103dc5760405163118cdaa760e01b815233600482015260240161036f565b610a53610bfd565b6000805460ff60a01b191690557f5db9ee0a495bf2e6ff9c91a7834c1ba4fdd244a5e8aa4e537bd38aeae4b073aa335b6040516001600160a01b03909116815260200160405180910390a1565b610aad8383836001610c27565b6108b257604051635274afe760e01b81526001600160a01b038416600482015260240161036f565b610add610c8d565b60027f9b779b17422d0df92223018b32b4d1fa46e071723d6817e2486d003becc55f0055565b600054600160a01b900460ff16156103dc5760405163d93c066560e01b815260040160405180910390fd5b610b3c848484846001610ccf565b610b6457604051635274afe760e01b81526001600160a01b038516600482015260240161036f565b50505050565b600080546001600160a01b038381166001600160a01b0319831681178455604051919092169283917f8be0079c531659141344cd1fd0a4f28419497f9722a3daafe3b4186f6b6457e09190a35050565b610bc2610b03565b6000805460ff60a01b1916600160a01b1790557f62e78cea01bee320cd4e420270b5ea74000d11b0c9f74754ebdbfc544b05a258610a833390565b600054600160a01b900460ff166103dc57604051638dfc202b60e01b815260040160405180910390fd5b60405163a9059cbb60e01b60008181526001600160a01b038616600452602485905291602083604481808b5af192506001600051148316610c81578383151615610c74573d6000823e3d81fd5b6000873b113d1516831692505b60405250949350505050565b7f9b779b17422d0df92223018b32b4d1fa46e071723d6817e2486d003becc55f00546002036103dc57604051633ee5aeb560e01b815260040160405180910390fd5b6040516323b872dd60e01b60008181526001600160a01b038781166004528616602452604485905291602083606481808c5af192506001600051148316610d2f578383151615610d22573d6000823e3d81fd5b6000883b113d1516831692505b60405250600060605295945050505050565b80356001600160a01b0381168114610d5857600080fd5b919050565b600060208284031215610d6f57600080fd5b61095a82610d41565b634e487b7160e01b600052602160045260246000fd5b60048110610dac57634e487b7160e01b600052602160045260246000fd5b9052565b60608101610dbe8286610d8e565b8360208301528215156040830152949350505050565b60008060408385031215610de757600080fd5b610df083610d41565b946020939093013593505050565b803560048110610d5857600080fd5b600060208284031215610e1f57600080fd5b61095a82610dfe565b600080600060608486031215610e3d57600080fd5b610e4684610dfe565b95602085013595506040909401359392505050565b60008060408385031215610e6e57600080fd5b610df083610dfe565b60408101610e858285610d8e565b8260208301529392505050565b634e487b7160e01b600052601160045260246000fd5b8082028115828204841417610ebf57610ebf610e92565b92915050565b80820180821115610ebf57610ebf610e9256fea26469706673582212202ba6044470a0129fa38adfa038a4fd89d0d8c3b9f48afc4c2dc8a4f169aba91d64736f6c63430008140033",
  "linkReferences": {},
  "deployedLinkReferences": {}
}